S0120000447269766572686F73742E73726563E8
S11300000C941C030C9439030C9439030C94390399
S11300100C9439030C9439030C9439030C9439036C
S11300200C9439030C9439030C9439030C9439035C
S11300300C9439030C9439030C9451370C94390300
S11300400C9439030C9439030C9439030C9439033C
S11300500C9439030C9439030C9439030C9439032C
S11300600C9439030C9439032E7C001008000C0006
S11300700001670002180C000002670002220C0055
S113008000036700005870322F00610000367000D2
S11300904AFA2F00700853804A806600FFFA201F36
S11300A04E752F00700D53804A806600FFFA201FA2
S11300B04E752F00701A53804A806600FFFA201F85
S11300C04E752F00202F00084C3C00000000051442
S11300D053804A806600FFFA201F4E7572407C00F0
S11300E07E002047227C00FFFC14247C00FFFC17C8
S11300F0267C0000AAAA3287148730BCF0F02F01B6
S11301006100FFC0301036BCAAAA31FC55555554C5
S113011036BC90903E10BE4066187C01328114813A
S11301202F016100FF9E30BCFFFF308030BC9090F7
S11301303E1054481E102F016100FF8870014AFAD6
S113014030BCF0F0487800644EB90010045A588F5F
S1130150247C0000AAAA367C55540C50FFFF671E6D
S1130160348A36BC555534BC8080348A36BC5555E7
S113017034BC101030103210B04166F8600254885C
S1130180B1C963D670014AFA343CFFFF3082308231
S1130190244870193212672634BC404042524EB98A
S11301A00010043A34BCC0C04EB90010042A321204
S11301B067045300600242524A0066D84AFA548ADD
S11301C0B5C963CE303C03E80C50FFFF672830BC50
S11301D0202030BC20204878000A6100FEE6588FB9
S11301E030BCA0A06100FEAC0C50FFFF670453407C
S11301F06006425060D25488B1C962044A4066C85D
S11302004A4066024AFA70014AFA70193211B25031
S11302106700002430BC404030916100FE8630BC51
S1130220C0C06100FE6EB2506704530060024250C9
S11302304A0066D84AFA54885489B3FC001003FF74
S113024063C870014AFA247C0000AAAA267C000034
S11302505554243C0000AAAA263C00005555283CCD
S11302600000A0A03011B050671234823683348469
S1130270309130103210B04166F8600454885489CB
S1130280B3FC001003FF63DC70014AFA227C001007
S113029000000C4600016700FF726000FFAA53894A
S11302A00C4600016700FEE26000FE962E7C00080A
S11302B020000C000001670001580C0000026700D8
S11302C002520C0000036700003470004AFA13FC69
S11302D0005500FFFA2713FC00AA00FFFA274E7509
S11302E02F0A2F02242F000C670C45F900081C224A
S11302F04E92538266FA241F245F4E752F0A4EB91C
S113030000081C2233FC800000FFF20013FC0000F4
S113031000FFFA2113FC000000FFFC0733FC8000FF
S113032000FFF40033FC800000FFFE0013FC00001B
S113033000FFFA2D33FCF00000FFFA0445F9000831
S11303401C224E92303900FFFA0444C06BF442B9C7
S113035000FFF808303900081F8A0240DFFF33C06D
S113036000FFF8002F3C0000C3504EBAFF74700128
S11303704AFA588F245F4E75206F000443E800400A
S1130380B3C863144A506614548860044A5866100B
S1130390B3C862F870014E7570014E7542004E7517
S11303A042004E7548E73838266F001C200B720F48
S11303B0E2A8263C00000100E1AB3803004400330E
S11303C000430032343CBB8145F900081C2249FA41
S11303D0FFA833C400FFF80E4E92303900FFF80C2A
S11303E06DF633C300FFF80E4A5366124A6B0020C1
S11303F0660C2F0B4E94588F0C0000016706534275
S113040066D060047001600242004CDF1C1C4E7513
S113041048E73C38267900080000B7FC0003FFFFDA
S113042062100279DFFF00FFF800283C000004049A
S113043060180079200000FFF800200B72004601CC
S1130440C0812640283C000001007001207C000887
S113045000047A0149FAFF4E068400080000220BCA
S1130460740FE4A92605E3ABE14B320300410032EB
S113047033C100FFF80E45E80040224B74203218C7
S11304800C41FFFF6602530232C1B5C866F04A024E
S113049067062F0B4E94588F0043003033C300FF80
S11304A0F80E4A00660470004AFA47EB0040B5C4EF
S11304B06404204A60A870014AFA4CDF1C3C4E7563
S11304C0206F0004202F0008B088631872FFB290D8
S11304D066165888600672FFB2986610B08862F695
S11304E070014E7570014E7542004E7542004E7596
S11304F00079800000FFF800303900FFF8006CF844
S113050033FC08C000FFF800303900FFF8006DF834
S11305104E7548E73F3C4EBAFFD80279DFFF00FF33
S1130520F80033FC225100FFF80C427900FFF80474
S113053050C549FAFDAC45F900081C2247FAFF8270
S11305403E05E14F3407004200362A7C00FFF80ED6
S11305503A82487800104E94427900010000300736
S1130560004000373A80588F4E92303900FFF80C23
S11305706DF633C200FFF80E487800104E94588F81
S1130580780142826004528252044E9276004603FD
S1130590C68242801005070067604A026722200372
S11305A0720FE3A8204048700170000080002F0003
S11305B04E93508F0280000000FFE7A89A00603A33
S11305C02F3C0000800042A74E93508F4A0067B62C
S11305D02A7C00FFF80000552000487801F44E946E
S11305E04878010042A74E93508F9A000255DFFFCE
S11305F0487801F44E94508F608C0C040007638695
S11306000047003033C700FFF80E487801F44E94D9
S1130610588F4A056600FF2A0279DFFF00FFF800C1
S113062033FC201000FFF80C70014AFA4CDF3CFC4C
S11306304E75000098C018C011241FBECFEFD8E03B
S1130640DEBFCDBF11E0A0E0B1E0E4E9F1E702C014
S113065005900D92A63AB107D9F728E0A6EAB1E0D1
S113066001C01D92A436B207E1F70E945C360C94D7
S1130670C8380C9400000F931F9308E010E020E0AA
S113068030E040E458E164E07BEF8FEF90E00E94BB
S1130690080B00E010E020E030E040E458E166E0C0
S11306A07BEF8FEF90E00E94080B00E018E020E061
S11306B030E040E458E160E07BEF8FEF90E00E948F
S11306C0080B1F910F9108950F931F9300E014E8F6
S11306D020E030E040E458E160EC76EF8FEF90E00A
S11306E00E94080B00E010E820E030E040E458E10C
S11306F060E876EF8FEF90E00E94080B00E010E0D6
S113070020E030E040E458E160E876EF8FEF90E0DD
S11307100E94080B00E010E120E030E040E458E1E2
S113072064E876EF8FEF90E00E94080B05E510E097
S113073020E030E040E058E167E27AEF8FEF90E0AC
S11307400E94080B0AEA10E020E030E040E058E1A3
S113075067E27AEF8FEF90E00E94080B00E010E070
S113076020E030E040E458E168E57AEF8FEF90E074
S11307700E94080B1F910F9108950F931F930091EE
S113078004011091050120E030E040E458E164E404
S11307907AEF8FEF90E00E94080B00910201109114
S11307A0030120E030E040E458E168E47AEF8FEFA1
S11307B090E00E94080B009100011091010120E0DB
S11307C030E040E45CE160E070E080E090E00E94B2
S11307D0080B07E010E020E030E040E458E160E579
S11307E07AEF8FEF90E00E94080B00E310E320E023
S11307F030E040E45CE160E070E080E090E00E9482
S1130800080B07E010E020E030E040E45CE160E049
S113081070E080E090E00E94080B00E310E520E027
S113082030E040E45CE160E070E080E090E00E9451
S1130830080B82E390E00E94463700E010E120E0DC
S113084030E040E458E164E07BEF8FEF90E00E94F9
S1130850080B1F910F9108950F931F931092070691
S11308600E94EA3460E08DE091E00E94503580916E
S11308700601082F10E020E030E04EE854E260E08A
S113088070E080E090E00E94570680910701082FF5
S113089010E020E030E04FE854E260E070E080E0F7
S11308A090E00E9457060E94EA3460E086E191E0FD
S11308B00E94503540E459E168E07AEF8FEF90E010
S11308C00E9433080E94EA3460E08EE191E00E94C5
S11308D050358091E0039091E1038830994A09F4FE
S11308E058C040E459E164E07AEF8FEF90E00E9451
S11308F033088091E0039091E1038830904349F5F7
S113090084E08093070600E010EE20E030E040E44D
S113091058E164E07AEF8FEF90E00E94570684E696
S113092090E00E9446370E94EA34809107068430A2
S113093009F43FC0833009F488C0823009F47DC0D3
S1130940813009F472C060E083E391E00E94503585
S1130950FFCF40E459E164E27AEF8FEF90E00E9428
S1130960330880910A0690910B06882791700E94A3
S11309707D3780ED97E00E94463780910A0690917A
S11309800B0690FF4CC082E08093070600E01FE74F
S1130990BCCF83E08093070608E018E620E030E04F
S11309A040E458E168E07AEF8FEF90E00E94570648
S11309B0B6CF0E943B0360E086E291E00E9450358E
S11309C088EE93E00E9446371092C50081E0809340
S11309D0C4008091C00082608093C00080910706AB
S11309E0833070F01092C4008091C00082608093C4
S11309F0C00080910706833019F41F910F91089568
S1130A0000E010E020E030E040E058E161E27AEFFD
S1130A108FEF90E00E94080B1F910F91089581E0E1
S1130A208093070600E01FE770CF0E94BD0360E0DB
S1130A3080E391E00E945035C3CF0E94BD0360E083
S1130A408DE291E00E945035BBCF0E94640360E0C8
S1130A508AE291E00E945035B3CF1092C5008FE036
S1130A608093C4001092C2001092C10040E062E082
S1130A7083E00E94AF3240E064E083E00E94AF3242
S1130A8042E067E083E00E94AF3240E061E083E04F
S1130A900E94AF3240E060E083E00C94AF3241E06A
S1130AA062E083E00E94AF3241E064E083E00E94B0
S1130AB0AF3241E064E083E00E94373341E062E01A
S1130AC083E00E94373382E390E00E94463740E09F
S1130AD062E083E00E9437331092C5008FE0809378
S1130AE0C4001092C2001092C10040E062E083E0B2
S1130AF00E94AF3240E064E083E00E94AF3242E003
S1130B0067E083E00E94AF3240E061E083E00E944E
S1130B10AF3240E060E083E00E94AF3284EF91E0C6
S1130B209093DF038093DE0306C08091DE039091EF
S1130B30DF03892B31F062E083E00E9414338823C1
S1130B40A1F362E083E00C94143341E064E083E0B9
S1130B500E94AF3241E061E083E00E94AF3241E0A5
S1130B6064E083E00E94373340E064E083E00E9465
S1130B70373384EF91E09093DF038093DE0306C064
S1130B808091DE039091DF03892B31F067E083E0ED
S1130B900E9414338823A1F367E083E00E94143396
S1130BA0882341F08AE090E00E94463767E083E0C2
S1130BB00C94143340E062E083E00E94373384E60F
S1130BC090E00E94463741E062E083E00E943733C0
S1130BD084EF91E09093DF038093DE0306C080915D
S1130BE0DE039091DF03892BE9F267E083E00E9442
S1130BF014338823A1F38AE090E00E94463767E02B
S1130C0083E00C9414330F931F93CF93DF938C01E1
S1130C101092E403D0E1C1E112C040E061E083E05E
S1130C200E94373360E083E00E9414338093E4032E
S1130C3041E064E083E00E943733C150D15040E08A
S1130C4064E083E00E943733C13139F38FEF8C0FB6
S1130C50980102C0369527958A95E2F7422F417094
S1130C6061E083E00E9437338091E0039091E103D7
S1130C70880F991F9093E1038093E00360E083E081
S1130C800E9414332091E0033091E103282B309328
S1130C90E1032093E00341E064E083E00E94373302
S1130CA0D111CBCFDF91CF911F910F9108958F92E6
S1130CB09F92AF92BF92CF92DF92EF92FF920F93E7
S1130CC01F93CF93DF937C016B015A01490110926A
S1130CD0E403D0E1C1E112C040E061E083E00E949E
S1130CE0373360E083E00E9414338093E40341E0EF
S1130CF064E083E00E943733C150D15040E064E0A7
S1130D0083E00E943733C13139F38FEF8C0F9501A3
S1130D1002C0369527958A95E2F7422F417061E02B
S1130D2083E00E9437338091E0039091E103880FC0
S1130D30991F9093E1038093E00360E083E00E94B5
S1130D4014332091E0033091E103282B3093E10325
S1130D502093E00341E064E083E00E943733D11143
S1130D60CBCFE114F10409F06DC0C114D10409F032
S1130D7069C0A7FCFCC01092E403D0E1C1E112C039
S1130D8040E061E083E00E94373360E083E00E944A
S1130D9014338093E40341E064E083E00E9437333A
S1130DA0C150D15040E064E083E00E943733C13148
S1130DB039F38FEF8C0F980102C0369527958A95E9
S1130DC0E2F7422F417061E083E00E943733809163
S1130DD0E0039091E103880F991F9093E1038093BE
S1130DE0E00360E083E00E9414332091E00330913B
S1130DF0E103282B3093E1032093E00341E064E016
S1130E0083E00E943733D111CBCF1092E403C0E1C9
S1130E1040E064E083E00E94373340E061E083E037
S1130E20C03109F0EFC00E94373360E083E00E94D4
S1130E3014338093E40341E064E083E00E94373399
S1130E40C150E6CF1092E403D0E1C1E112C040E00A
S1130E5061E083E00E94373360E083E00E94143352
S1130E608093E40341E064E083E00E943733C1509F
S1130E70D15040E064E083E00E943733C13139F35C
S1130E808FEF8C0F970102C0369527958A95E2F76C
S1130E90422F417061E083E00E9437338091E00388
S1130EA09091E103880F991F9093E1038093E003ED
S1130EB060E083E00E9414332091E0033091E10369
S1130EC0282B3093E1032093E00341E064E083E0C6
S1130ED00E943733D111CBCF1092E403D0E1C1E1AA
S1130EE012C040E061E083E00E94373360E083E0B9
S1130EF00E9414338093E40341E064E083E00E94A1
S1130F003733C150D15040E064E083E00E9437336E
S1130F10C13139F38FEF8C0F960102C036952795B6
S1130F208A95E2F7422F417061E083E00E943733F3
S1130F308091E0039091E103880F991F9093E1035E
S1130F408093E00360E083E00E9414332091E00387
S1130F503091E103282B3093E1032093E00341E037
S1130F6064E083E00E943733D111CBCF02CF1092DB
S1130F70E403D0E1C1E112C040E061E083E00E94FB
S1130F80373360E083E00E9414338093E40341E04C
S1130F9064E083E00E943733C150D15040E064E004
S1130FA083E00E943733C13139F38FEF8C0F940102
S1130FB002C0369527958A95E2F7422F417061E089
S1130FC083E00E9437338091E0039091E103880F1E
S1130FD0991F9093E1038093E00360E083E00E9413
S1130FE014332091E0033091E103282B3093E10383
S1130FF02093E00341E064E083E00E943733D111A1
S1131000CBCFB9CE0E9437338091E0039091E103B6
S1131010880F991F9093E1038093E00360E083E0DD
S11310200E9414332091E0033091E103282B309384
S1131030E1032093E00341E064E083E00E9437335E
S1131040C111FECE8091E4038111DFCEDF91CF91F7
S11310501F910F91FF90EF90DF90CF90BF90AF90D2
S11310609F908F900895CF92DF92EF92FF920F930B
S11310701F93CF93DF936C018B017A011092E403E9
S1131080D0E1C1E112C040E061E083E00E94373367
S113109060E083E00E9414338093E40341E064E061
S11310A083E00E943733C150D15040E064E083E0D4
S11310B00E943733C13139F38FEF8C0F970102C08F
S11310C0369527958A95E2F7422F417061E083E0D7
S11310D00E9437338091E0039091E103880F991FB8
S11310E09093E1038093E00360E083E00E94143373
S11310F02091E0033091E103282B3093E103209306
S1131100E00341E064E083E00E943733D111CBCFA8
S1131110C114D10409F06BC00115110509F067C0B1
S1131120E7FE48C01092E403C0E140E064E083E0DD
S11311300E94373340E061E083E0C03179F40E94DB
S1131140373360E083E00E9414338093E40341E08A
S113115064E083E00E943733C150E7CF0E94373305
S11311608091E0039091E103880F991F9093E1032C
S11311708093E00360E083E00E9414332091E00355
S11311803091E103282B3093E1032093E00341E005
S113119064E083E00E943733C111DECF8091E40321
S11311A08111C0CF8091E0039091E1039093E30318
S11311B08093E2031092E403C0E140E064E083E042
S11311C00E94373340E061E083E0C03109F0A4C0FD
S11311D00E94373360E083E00E9414338093E40379
S11311E041E064E083E00E943733C150E6CF1092BF
S11311F0E403D0E1C1E112C040E061E083E00E9479
S1131200373360E083E00E9414338093E40341E0C9
S113121064E083E00E943733C150D15040E064E081
S113122083E00E943733C13139F38FEF8C0F96017D
S113123002C0369527958A95E2F7422F417061E006
S113124083E00E9437338091E0039091E103880F9B
S1131250991F9093E1038093E00360E083E00E9490
S113126014332091E0033091E103282B3093E10300
S11312702093E00341E064E083E00E943733D1111E
S1131280CBCF1092E403D0E1C1E112C040E061E0B1
S113129083E00E94373360E083E00E94143380933C
S11312A0E40341E064E083E00E943733C150D1504D
S11312B040E064E083E00E943733C13139F38FEFBB
S11312C08C0F980102C0369527958A95E2F7422F34
S11312D0417061E083E00E9437338091E003909194
S11312E0E103880F991F9093E1038093E00360E08A
S11312F083E00E9414332091E0033091E103282B12
S11313003093E1032093E00341E064E083E00E9432
S11313103733D111CBCF04CF0E9437338091E00310
S11313209091E103880F991F9093E1038093E00368
S113133060E083E00E9414332091E0033091E103E4
S1131340282B3093E1032093E00341E064E083E041
S11313500E943733C11149CF8091E40381112ACF10
S11313608091E0039091E10390930B0680930A0629
S1131370DF91CF911F910F91FF90EF90DF90CF906D
S113138008958BB18D7E8BB983EC8093C20088E184
S11313908093C100489B27C023EC98E18091C00052
S11313A085FFFCCF1092C6008091C00087FFFCCF60
S11313B08091C6008091C00085FFFCCF1092C600CA
S11313C08091C00087FFFCCF8091C6001092C200BC
S11313D01092C1008BB18D7E8BB92093C200909383
S11313E0C1004899DBCF8091C00085FFFCCF1092EB
S11313F0C6008091C00087FFFCCF8091C600109288
S1131400E0038093E1038091C00085FFFCCF10923C
S1131410C6008091C00087FFFCCF2091C600809158
S1131420E0039091E103820F911D9093E103809377
S1131430E0031092C2001092C10008952BB12D7EDA
S11314402BB929B121702093E40323EC2093C2002B
S113145028E12093C1002091C00025FFFCCF909388
S1131460C6009091C00097FFFCCF9091C6001092E7
S1131470E0039093E1039091C00095FFFCCF80932B
S1131480C6008091C00087FFFCCF2091C6008091E8
S1131490E0039091E103820F911D9093E103809307
S11314A0E0031092C2001092C1000895FC018BB1B8
S11314B08D7E8BB989B181708093E40383EC809332
S11314C0C20088E18093C1009091C00095FFFCCFD9
S11314D08CE18093C6009091C00097FFFCCF80916F
S11314E0C6001092E0038093E1039091C00095FF41
S11314F0FCCF80E88093C6009091C00097FFFCCF9A
S11315002091C6008091E0039091E103820F911D28
S11315109093E1038093E0031092C2001092C10003
S11315208BB18D7E8BB983EC8093C20088E180936C
S1131530C100208181819091C00095FFFCCF209350
S1131540C6009091C00097FFFCCF9091C600909187
S1131550C00095FFFCCF8093C6009091C00097FF18
S1131560FCCF8091C6001092C2001092C1008BB1D2
S11315708D7E8BB983EC8093C20088E18093C10097
S1131580228193818091C00085FFFCCF2093C60007
S11315908091C00087FFFCCF8091C6008091C0007D
S11315A085FFFCCF9093C6008091C00087FFFCCFDD
S11315B08091C6001092C2001092C10033EC28E161
S11315C08BB18D7E8BB93093C2002093C10099B149
S11315D091708091C00085FFFCCF1092C60080916D
S11315E0C00087FFFCCF8091C6008091C00085FFBA
S11315F0FCCF1092C6008091C00087FFFCCF809181
S1131600C6001092C2001092C1009111D9CF089562
S11316100F931F93FC018BB18D7E8BB989B18170BF
S11316208093E40383EC8093C20088E18093C1003B
S11316309091C00095FFFCCF5093C6009091C000DC
S113164097FFFCCF8091C6001092E0038093E103E2
S11316509091C00095FFFCCF4093C6009091C000CC
S113166097FFFCCF5091C6008091E0039091E10375
S1131670850F911D9093E1038093E0031092C200C3
S11316801092C100309709F07BC06115710509F013
S113169077C047FDE5C08BB18D7E8BB989B1817070
S11316A08093E40383EC8093C20088E18093C100BB
S11316B08091C00085FFFCCF1093C6008091C000CC
S11316C087FFFCCF8091C6001092E0038093E10372
S11316D08091C00085FFFCCF0093C6008091C000BC
S11316E087FFFCCF2091C6008091E0039091E10335
S11316F0820F911D9093E1038093E0031092C20046
S11317001092C10043EC38E18BB18D7E8BB989B165
S113171081708093E4034093C2003093C1008091B0
S1131720C00085FFFCCF1092C6008091C00087FFE7
S1131730FCCF8091C6001092E0038093E103809176
S1131740C00085FFFCCF1092C6008091C00087FFC7
S1131750FCCF2091C6008091E0039091E103820FB9
S1131760911D9093E1038093E0031092C2001092C4
S1131770C1008091E4038111C7CF1F910F91089597
S11317808BB18D7E8BB989B181708093E40383EC36
S11317908093C20088E18093C1009091C00095FFBE
S11317A0FCCFF093C6009091C00097FFFCCF8091CE
S11317B0C6001092E0038093E1039091C00095FF6E
S11317C0FCCFE093C6008091C00087FFFCCF50910E
S11317D0C6008091E0039091E103850F911D9093E1
S11317E0E1038093E0031092C2001092C1008BB118
S11317F08D7E8BB989B181708093E40383EC8093EF
S1131800C20088E18093C1008091C00085FFFCCFB5
S11318107093C6008091C00087FFFCCF8091C60002
S11318201092E0038093E1038091C00085FFFCCF18
S11318306093C6008091C00087FFFCCF5091C60022
S11318408091E0039091E103850F911D9093E10352
S11318508093E0031092C2001092C10047FF1BCF97
S11318608BB18D7E8BB989B181708093E40383EC55
S11318708093C20088E18093C1008091C00085FFFD
S1131880FCCF3093C6008091C00087FFFCCF8091CD
S1131890C6001092E0038093E1038091C00085FFAD
S11318A0FCCF2093C6008091C00087FFFCCF20911D
S11318B0C6008091E0039091E103820F911D909303
S11318C0E1038093E0031092C2001092C100E3CEC2
S11318D0FC018BB18D7E8BB989B181708093E40357
S11318E083EC8093C20088E18093C1009091C00092
S11318F095FFFCCF5093C6009091C00097FFFCCF9A
S11319008091C6001092E0038093E1039091C0009F
S113191095FFFCCF4093C6009091C00097FFFCCF89
S11319208091C6002091E0033091E103280F311D1E
S11319303093E1032093E0031092C2001092C1009F
S1131940309721F46115710509F46EC08BB18D7E59
S11319508BB989B181708093E40383EC8093C200D6
S113196088E18093C1009091C00095FFFCCFF09373
S1131970C6009091C00097FFFCCF8091C6001092E2
S1131980E0038093E1039091C00095FFFCCFE093C6
S1131990C6008091C00087FFFCCF2091C6008091D3
S11319A0E0039091E103820F911D9093E1038093F2
S11319B0E0031092C2001092C1008BB18D7E8BB9EE
S11319C089B181708093E40383EC8093C20088E141
S11319D08093C1008091C00085FFFCCF7093C60046
S11319E08091C00087FFFCCF8091C6001092E00375
S11319F08093E1038091C00085FFFCCF6093C60013
S1131A008091C00087FFFCCF2091C6008091E00345
S1131A109091E103820F911D9093E1038093E00381
S1131A201092C2001092C10047FF0AC00E94C1096F
S1131A308091E0039091E1039093E3038093E203A8
S1131A400E94C1098091E0039091E10390930B06F9
S1131A5080930A060895EF92FF920F931F93CF93FA
S1131A607B01C42F082F10E020E030E040E850E272
S1131A7060E070E080E090E00E94080B00E010E07D
S1131A8020E030E048E850E260E070E080E090E080
S1131A900E94080B2C2F30E049E850E260E070E02F
S1131AA080E090E00E94080BF701028113812081FD
S1131AB0318140E854E260E070E080E090E00E9410
S1131AC0080B00E010E020E030E040E050E060E08F
S1131AD070E080E090E00E94080B80E09CE00E94AF
S1131AE0030667E083E00E9414338111FACF83E098
S1131AF090E09093DF038093DE0303E010E006C0E0
S1131B008091DE039091DF03892BB1F062E083E0E2
S1131B100E9414338823A1F367E083E00E94143306
S1131B208111EECF1093DF030093DE038091DE0377
S1131B309091DF03892B51F740E851E260E070E0B7
S1131B4080E090E00E94680C80910A06CF911F917A
S1131B500F91FF90EF9008956F927F928F929F92D2
S1131B60AF92BF92CF92DF92EF92FF920F931F93A7
S1131B70CF93DF9300D000D0CDB7DEB77C016B01EB
S1131B80742E25EE33E048E552E06CE076E087EE13
S1131B9093E00E94532B8091E5039091E6038835EE
S1131BA09240A1F080E00F900F900F900F90DF9182
S1131BB0CF911F910F91FF90EF90DF90CF90BF9046
S1131BC0AF909F908F907F906F90089501E010E008
S1131BD020E030E040E850E260E070E080E090E037
S1131BE00E94080B00E010E020E030E048E850E2FA
S1131BF060E070E080E090E00E94080B812C912C62
S1131C00612C82E0A82EB12CF7016281738100E07F
S1131C1010E020E030E040E858E1808191810E94AA
S1131C20080B0CE016E0C8010E94560A0C5F1F4F17
S1131C30F8E00C301F07B9F70AE610E007C0CE0140
S1131C4001960E94560A0150110991F025EE33E0E5
S1131C5044E050E0BE016F5F7F4F87EE93E00E9447
S1131C60532B8091E5039091E603049741F39ACFB7
S1131C70F601028113812081318140E854E260E061
S1131C8070E080E090E00E94080B80E090E00E9409
S1131C901E0A80E09CE00E940306FCEF9F1A811458
S1131CA0910409F463946714E0F0B092DF03A09206
S1131CB0DE0306C08091DE039091DF03892B19F1C6
S1131CC062E083E00E9414338823A1F367E083E099
S1131CD00E9414338111EECFB092DF03A092DE0391
S1131CE0E9CF25EE33E048E552E06CE076E087EE9C
S1131CF093E00E94532B8091E5039091E60388358D
S1131D00924099F24FCF40E851E260E070E080E009
S1131D1090E00E94680C80910A0690910B0601974E
S1131D2009F040CF761070CF81E03DCFBF92CF92C3
S1131D30DF92EF92FF920F931F93CF93DF9300D024
S1131D4000D0CDB7DEB76C017B01B42E8FEF9FEFCF
S1131D50909309068093080680E491E00E942A3853
S1131D6000E010E020E030E040E858E16CEF73E080
S1131D7080E190E00E94080BF801E859FF4F85913B
S1131D8094919A838983F801E659FF4F8591949140
S1131D909C838B83CE0101960E94560A0C5F1F4FD1
S1131DA080910801909109010817190728F340E070
S1131DB062E083E00E94AF3283E491E00E942A381B
S1131DC040E0B70183E00E942B0D81110FC080E039
S1131DD00F900F900F900F90DF91CF911F910F9163
S1131DE0FF90EF90DF90CF90BF90089588E491E04A
S1131DF00E942A384B2DB70182E00E942B0D8823C4
S1131E0031F38EE491E00E942A384B2DB701C601CC
S1131E100E94AC0D8823D9F284E591E00E942A380F
S1131E208091080690910906809590950E947D37CF
S1131E3081E0CECF6F927F928F929F92AF92BF92AA
S1131E40CF92DF92EF92FF920F931F93CF93DF9382
S1131E5000D000D0CDB7DEB741E067E571E087EE92
S1131E6093E00E948D218823A1F080E00F900F90D1
S1131E700F900F90DF91CF911F910F91FF90EF90F2
S1131E80DF90CF90BF90AF909F908F907F906F9096
S1131E90089540E062E083E00E94AF3201E010E088
S1131EA020E030E040E850E260E070E080E090E064
S1131EB00E945706C12CDD24D394A12CB12C812C73
S1131EC0912C22E0622E712C8501940140E858E1A6
S1131ED060E070E088E090E00E94080BC114D10437
S1131EE0F9F0E12CF12C0AC0CE0101960E94560AA9
S1131EF08FEFE81AF80AEC14FD0491F025EE33E0B4
S1131F0044E050E0BE016F5F7F4F87EE93E00E9494
S1131F10532B8091E5039091E603049729F3A5CF11
S1131F2000E01CE128E030E040E854E260E070E0CA
S1131F3080E090E00E94080B00E010E020E030E038
S1131F4040E050E060E070E080E090E00E94080B28
S1131F5080E09CE00E9403067092DF036092DE033F
S1131F6067E083E00E9414338111FACF8CEFB81A32
S1131F70A114B10419F48FEF881A980A84E0881622
S1131F80910439F437C08091DE039091DF03892BEB
S1131F90B1F062E083E00E9414338823A1F367E088
S1131FA083E00E9414338111EECF7092DF036092BC
S1131FB0DE038091DE039091DF03892B51F740E823
S1131FC051E260E070E080E090E00E94680C809153
S1131FD00A0690910B06019709F047CF84E0881612
S1131FE0910409F071CF81E0A816B80608F46CCF0B
S1131FF081E03CCF80E4C82ED12CCBCF0F931F932C
S1132000CF93DF93CDB7DEB728970FB6F894DEBF32
S11320100FBECDBF88E090E09E838D838CEF9BE163
S113202098878F838FE591E00E942A388FEF9FEF86
S1132030909309068093080600E010E020E030E069
S113204040E858E16CEF7BE188E090E00E94080BE7
S1132050F801E455FD4F859194919A838983F801A1
S1132060E255FD4F859194919C838B83CE0101961B
S11320700E94560A0C5F1F4F80910A0190910B0138
S11320800817190728F340E0BE016B5F7F4F83E018
S11320900E942B0D81110CC080E028960FB6F89495
S11320A0DEBF0FBECDBFDF91CF911F910F91089579
S11320B040E0BE016B5F7F4F82E00E942B0D8823BE
S11320C059F386E691E00E942A380E941A0F882369
S11320D019F384E591E00E942A38809108069091D2
S11320E00906809590950E947D3781E0D6CF8F9226
S11320F09F92AF92BF92CF92DF92EF92FF920F9393
S11321001F93CF93DF93EC01CAA4DBA4ECA4FDA43A
S11321105C018EE2A80EB11C01E010E0A70196015B
S1132120B50189810E94E030811130C01C828E8DFE
S11321309F8DA8A1B9A1B701A601481B590B6A0B31
S11321407B0B8E899F89A88DB98D481759076A071B
S11321507B0710F080E01BC08B80912C82E08816F6
S11321609104C0F38E899F89A88DB98DC80ED91E9C
S1132170EA1EFB1E01E010E0A7019601B50189816A
S11321800E94E03081E0881A9108E8CF81E0DF9175
S1132190CF911F910F91FF90EF90DF90CF90BF9060
S11321A0AF909F908F9008954F925F926F927F921D
S11321B08F929F92AF92BF92CF92DF92EF92FF9253
S11321C00F931F93CF93DF93EC012A013B01CAA421
S11321D0DBA4ECA4FDA4C416D506E606F70609F4B0
S11321E06FC08C81811128C08E01025D1F4F580180
S11321F001E010E0A3019201B50189810E946530DC
S1132200882329F081E044244A94542C32014AA6BC
S11322105BA66CA67DA6DF91CF911F910F91FF90D5
S1132220EF90DF90CF90BF90AF909F908F907F9072
S11322306F905F904F9008955E011EE2A10EB11C55
S113224001E010E0A7019601B50189810E94E03008
S1132250811134C01C828E899F89A88DB98D4E8DC1
S11322605F8D68A179A197018601041B150B260BCC
S1132270370B081719072A073B0708F0B9CF8B80DB
S1132280912C12E08116910428F4B2CF8E899F8993
S1132290A88DB98DC80ED91EEA1EFB1E01E010E000
S11322A0A7019601B50189810E94E03021E0821ADC
S11322B0910831E08316910449F79ACF81E0ABCFBE
S11322C080E0A9CF2F923F924F925F926F927F92BC
S11322D08F929F92AF92BF92CF92DF92EF92FF9232
S11322E00F931F93CF93DF93CDB7DEB762970FB6EB
S11322F0F894DEBF0FBECDBF9A8B898B6A017B0138
S113230048015901DC018C91823009F49EC183306B
S113231009F42FC18130D1F082E062960FB6F894AF
S1132320DEBF0FBECDBFDF91CF911F910F91FF9004
S1132330EF90DF90CF90BF90AF909F908F907F9061
S11323406F905F904F903F902F900895CA0196959B
S11323508795FC01E40FF51FFE83ED835E968D9156
S11323609D910D90BC91A02D9F01232F332726957D
S1132370AC01BD01420F531F611D711D49835A8376
S11323806B837C83E989FA8942A453A464A475A469
S1132390441555056605770509F4EBC2848181115E
S11323A058C2BE961F0101E010E029813A814B8199
S11323B05C81B101E989FA8981810E9465308111CA
S11323C09FC209811A812B813C81A989BA899A9675
S11323D00D931D932D933C939D97FD01868D978DB1
S11323E0A0A1B1A1280139010D811E810F5F1F4FEA
S11323F01A8709876D817E817170A701960121700A
S11324003327442755272D873E874F87588BE989E3
S1132410FA89E60FF71FC0FE7EC226A5422F4F7031
S113242050E1859E90011124242B26A721E0E989FF
S1132430FA8924839801232F332726956C017D0183
S1132440C20ED31EE11CF11C09811A812B813C812F
S11324500C151D052E053F0509F48EC229893A89FC
S1132460225D3F4F3E832D8301E010E029813A81B4
S11324704B815C816D817E81A989BA8911968C9189
S11324800E94E030811145C2E989FA891482868963
S11324909789A08DB18D468D578D60A171A1098159
S11324A01A812B813C81041B150B260B370B081753
S11324B019072A073B0770F52381222E312C12E0DD
S11324C02116310438F1C982DA82EB82FC82ED8074
S11324D0FE8006C0E989FA8986899789A08DB18D25
S11324E0480E591E6A1E7B1E01E010E0A3019201F2
S11324F0B701A989BA8911968C910E94E030B1E0A4
S11325002B1A3108E1E02E16310421F7C980DA8054
S1132510EB80FC8001E010E0A70196016D817E81D3
S1132520A989BA8911968C910E9465308111E8C1FC
S1132530A989BA899A96CD92DD92ED92FC929D97E3
S1132540E985FA85F1700D851E852F853889012B63
S1132550022B032B09F4FCC154E0B694A79497947E
S113256087945A95D1F709891A89E00FF11FD80188
S1132570FAC1E989FA89468D578D60A171A1D70105
S1132580C60127E0B695A795979587952A95D1F723
S11325908C019D01040F151F261F371F09831A8301
S11325A02B833C8342A453A464A475A40415150589
S11325B02605370501F184818111F4C0BE961F01FF
S11325C001E010E029813A814B815C81B101A98944
S11325D0BA8911968C910E946530811191C109814B
S11325E01A812B813C81A989BA899A960D931D93EE
S11325F02D933C939D97CC0CDD1CEE1CFF1CCC0C46
S1132600DD1CEE1CFF1CFCEFCF22F1E0DF22EE24E8
S1132610FF24F601BE9609891A89E00FF11F808113
S11326209181A281B38188279927AA27B07F882A1C
S1132630992AAA2ABB2A80829182A282B38281E04B
S1132640D80114968C9380E068CEBB27AF2D9E2DC5
S11326508D2DE989FA89468D578D60A171A18C0170
S11326609D01040F151F261F371F09831A832B830F
S11326703C8342A453A464A475A40415150526053B
S11326803705F9F08481811136C0BE961F0101E03F
S113269010E029813A814B815C81B101E989FA8991
S11326A081810E94653081112BC129813A814B813E
S11326B05C81A989BA899A962D933D934D935C9335
S11326C09D97CC0CDD1CEE1CFF1CE894C0F8F1E0D7
S11326D0DF22EE24FF240EE2C00ED11CE989FA8920
S11326E0EC0DFD1D9182808281E0A989BA8914963E
S11326F08C9380E012CE29883A881EE2210E311C88
S113270001E010E0A3019201B101A989BA891196EF
S11327108C910E94E0308111FCC0E989FA8914820D
S113272086899789A08DB18D468D578D60A171A141
S113273093018201041B150B260B370B081719078D
S11327402A073B0708F0A3CF2381022F10E00230B1
S1132750110508F49CCFCD82DE82EF82F8867801E1
S113276006C0E989FA8986899789A08DB18D480EBA
S1132770591E6A1E7B1E01E010E0A3019201B10103
S1132780A989BA8911968C910E94E030B1E0EB1AC4
S1132790F108E1E0EE16F10421F7CD80DE80EF8050
S11327A0F88475CF29883A881EE2210E311C01E095
S11327B010E0A3019201B101A989BA8911968C9103
S11327C00E94E0308111A5C0E989FA8914828689C2
S11327D09789A08DB18D468D578D60A171A193010C
S11327E08201041B150B260B370B081719072A0740
S11327F03B0708F0E5CE2381022F10E002301105DB
S113280008F4DECECD82DE82EF82F886780106C03F
S1132810E989FA8986899789A08DB18D480E591E58
S11328206A1E7B1E01E010E0A3019201B101A98997
S1132830BA8911968C910E94E030B1E0EB1AF1084C
S1132840E1E0EE16F10421F7CD80DE80EF80F8841C
S1132850B7CE29883A88FEE22F0E311C01E010E041
S1132860A3019201B101A989BA8911968C910E94A0
S1132870E03081114EC0E989FA89148286899789EA
S1132880A08DB18D468D578D60A171A193018201F8
S1132890041B150B260B370B081719072A073B07D0
S11328A008F081CD2381022F10E00230110508F4D5
S11328B07ACDC986DA86EB86FC86780106C0E9897A
S11328C0FA8986899789A08DB18D480E591E6A1E92
S11328D07B1E01E010E0A3019201B101A989BA892C
S11328E011968C910E94E030B1E0EB1AF108E1E01E
S11328F0EE16F10421F7C984DA84EB84FC8453CD09
S11329008FEF9FEFDC01E989FA8982A793A7A4A737
S1132910B5A781E002CD86A621E0E989FA8924835E
S113292029853A85232F332726956C017D01C20E14
S1132930D31EE11CF11C09811A812B813C81C01634
S1132940D106E206F30609F089CDE985FA85F1702E
S113295029893A89E20FF31F96A5907F892D8F70FC
S1132960892E882AD90186A681E014968C9380E06A
S1132970D4CC2A013B0138CDE985FA85F170ECCD40
S11329802F923F924F925F926F927F928F929F927B
S1132990AF92BF92CF92DF92EF92FF920F931F9369
S11329A0CF93DF93CDB7DEB760970FB6F894DEBF51
S11329B00FBECDBF988B8F876A017B01DC018C91A0
S11329C0823009F40FC1833009F4B9C08130E9F0D1
S11329D061E070E080E090E060960FB6F894DEBFAE
S11329E00FBECDBFDF91CF911F910F91FF90EF905C
S11329F0DF90CF90BF90AF909F908F907F906F901B
S1132A005F904F903F902F900895CA0196958795B7
S1132A10FC01EC0DFD1DFA83E9835E968D919D9179
S1132A200D90BC91A02D9F01232F332726954C0197
S1132A305D01820E931EA11CB11CEF85F88942A48E
S1132A4053A464A475A484149504A604B70409F4D7
S1132A501DC284818111B6C1BE961F0101E010E040
S1132A60A5019401B101AF85B88911968C910E949A
S1132A7065308111FEC1AF85B8899A968D929D9279
S1132A80AD92BC929D97FD01868D978DA0A1B1A1B9
S1132A908D829E82AF82B88609811A810F5F1F4F93
S1132AA01A87098729813A8131704F855889420FE5
S1132AB0531FFA01F6A5F9839801232F332726958E
S1132AC02C013D01420E531E611C711C4814590413
S1132AD06A047B04E9F0AF85B88914968C91149745
S1132AE08111D9C19E961D0101E010E0A30192015C
S1132AF0B101EF85F88981810E9465308111B9C1E6
S1132B00AF85B8899A964D925D926D927C929D970D
S1132B10E985FA85F1700F851889E00FF11F86A504
S1132B209981692F70E0782BC0FE11C2729562956D
S1132B306F7067277F70672780E090E04DCFAF8587
S1132B40B8895E968D909D90AD90BC909197DB0175
S1132B50CA0127E0B695A795979587952A95D1F749
S1132B60880E991EAA1EBB1EEF85F88942A453A4A1
S1132B7064A475A484149504A604B704C9F08481DC
S1132B808111C9C0BE961F0101E010E0A5019401A6
S1132B90B101EF85F88981810E946530811169C195
S1132BA0AF85B8899A968D929D92AD92BC929D976D
S1132BB0CC0CDD1CEE1CFF1CCC0CDD1CEE1CFF1C25
S1132BC0FCEFCF22F1E0DF22EE24FF24EF85F88929
S1132BD0EC0DFD1D86A597A5A0A9B1A9BC01CD0149
S1132BE09F70FACE8D2C9E2CAF2CBB24EF85F889D8
S1132BF0868D978DA0A1B1A1880E991EAA1EBB1E19
S1132C0042A453A464A475A484149504A604B7042C
S1132C10C1F08481811128C0BE961F0101E010E03B
S1132C20A5019401B101AF85B88911968C910E94D8
S1132C30653081111EC1EF85F88982A693A6A4A6EA
S1132C40B5A6CC0CDD1CEE1CFF1CE894C0F8F1E02A
S1132C50DF22EE24FF24EF85F889EC0DFD1D66A527
S1132C6077A580E090E0B8CE2F843888FEE22F0E5E
S1132C70311C01E010E0A3019201B101AF85B889D4
S1132C8011968C910E94E0308111FCC0EF85F88987
S1132C90148286899789A08DB18D468D578D60A148
S1132CA071A193018201041B150B260B370B081726
S1132CB019072A073B0708F0B1CF2381022F10E040
S1132CC00230110508F4AACFC982DA82EB82FC82B1
S1132CD0780106C0EF85F88986899789A08DB18D22
S1132CE0480E591E6A1E7B1E01E010E0A3019201EA
S1132CF0B101AF85B88911968C910E94E030B1E0A2
S1132D00EB1AF108E1E0EE16F10421F7C980DA804C
S1132D10EB80FC8083CF2F843888FEE22F0E311C99
S1132D2001E010E0A3019201B101AF85B8891196C9
S1132D308C910E94E0308111A5C0EF85F88914823E
S1132D4086899789A08DB18D468D578D60A171A11B
S1132D5093018201041B150B260B370B0817190767
S1132D602A073B0708F010CF2381022F10E002301E
S1132D70110508F409CFC982DA82EB82FC8278015A
S1132D8006C0EF85F88986899789A08DB18D480E94
S1132D90591E6A1E7B1E01E010E0A3019201B101DD
S1132DA0AF85B88911968C910E94E030B1E0EB1A9E
S1132DB0F108E1E0EE16F10421F7C980DA80EB8036
S1132DC0FC80E2CE2F843888FEE22F0E311C01E015
S1132DD010E0A3019201B101AF85B88911968C91DD
S1132DE00E94E03081114EC0EF85F88914828689F3
S1132DF09789A08DB18D468D578D60A171A19301E6
S1132E008201041B150B260B370B081719072A0719
S1132E103B0708F023CE2381022F10E00230110576
S1132E2008F41CCECD82DE82EF82F886780106C0DB
S1132E30EF85F88986899789A08DB18D480E591E32
S1132E406A1E7B1E01E010E0A3019201B101AF856F
S1132E50B88911968C910E94E030B1E0EB1AF10828
S1132E60E1E0EE16F10421F7CD80DE80EF80F884F6
S1132E70F5CD8FEF9FEFDC01EF85F88982A793A74B
S1132E80A4A7B5A76FEF7FEFCB01A6CD8D829E825D
S1132E90AF82B88601CE1D01FD01BEE22B0E311CAE
S1132EA001E010E0A5019401B10181810E94E030AC
S1132EB08111E8CFAF85B88914961C921497FD014F
S1132EC086899789A08DB18D468D578D60A171A19A
S1132ED095018401041B150B260B370B08171907E2
S1132EE02A073B0708F000CE2381A22EB12C12E062
S1132EF0A116B10408F4F8CDCB86DC86ED86FE86F7
S1132F0075018D809E80AF80B88406C0EF85F889F6
S1132F1086899789A08DB18D880E991EAA1EBB1E25
S1132F2001E010E0A5019401B101AF85B8891196C3
S1132F308C910E94E030B1E0EB1AF108E1E0EE166A
S1132F40F10421F7CB84DC84ED84FE84CDCD7F7045
S1132F5080E090E041CDCF92DF92EF92FF920F9309
S1132F601F93CF93DF93FC0115821482C680D78010
S1132F70E084F18421E0C216D104E104F10459F0A3
S1132F80C081D1818A899B89AC89BD89C816D9063B
S1132F90EA06FB0650F082E0DF91CF911F910F917A
S1132FA0FF90EF90DF90CF900895C114D104E10415
S1132FB0F10439F528812330C9F088859985892B56
S1132FC051F38AA19BA1ACA1BDA1C286D386E4869C
S1132FD0F5860097A105B105F1F286879787A08B46
S1132FE0B18BAE96D38BC28B80E0D6CF4AA15BA1C6
S1132FF06CA17DA14115510561057105F1F26A01CC
S11330007B018F016A81662309F12EC0B701A601F5
S1133010CE010E94C0146B017C016F3FFFEF7F075C
S11330208F079F07F1F1623071058105910508F45E
S1133030B2CFF801C081D1818A899B89AC89BD89CD
S1133040C816D906EA06FB0608F0A5CFE2E0CE16BC
S1133050D104E104F10408F49ECFC816D906EA06A7
S1133060FB0608F098CFD2CFA70196012250310970
S1133070410951090297A109B109281739074A07DB
S11330805B0788F4A62FB0E00E94BD380EA11FA1F3
S113309028A539A5DC01CB01800F911FA21FB31F06
S11330A094CF81E079CFC286D386E486F58673CF48
S11330B02F923F924F925F926F927F928F929F9244
S11330C0AF92BF92CF92DF92EF92FF920F931F9332
S11330D0CF93DF93CDB7DEB766970FB6F894DEBF14
S11330E00FBECDBF7C0149875A876B877C87452BF0
S11330F0462B472B09F0B8C0DC011A960D911D919F
S11331002D913C911D9709831A832B833C830115D0
S113311011052105310509F0DCC052968D919D9170
S11331200D90BC91A02D01E010E020E030E0098377
S11331301A832B833C8349805A806B807C801701DF
S11331401EE2210E311CFE8AED8A38C009811A81E3
S11331502B813C81023011052105310508F41CC383
S113316002E0402E512C612C712C0397A105B1056E
S113317058F0AD89BE898C918230B1F1833009F465
S11331804EC1813009F4B9C041E050E060E070E024
S1133190413051056105710509F400C209811A81A4
S11331A02B813C81401651066206730609F4F4C271
S11331B0ED89FE8982899389A489B5892FEF421A02
S11331C0520A620A720A481659066A067B0608F011
S11331D0BDCF12E04116510461047104A8F2AD8917
S11331E0BE898C91823051F6FD01FF24E72CD62C48
S11331F0C52C868D978DA0A1B1A1C80ED91EEA1E3B
S1133200FB1E82A493A4A4A4B5A4C814D904EA04FC
S1133210FB04C9F0848181116DC201E010E0A701B3
S11332209601B101AD89BE8911968C910E946530D9
S11332308111A7C1AD89BE899A96CD92DD92ED9296
S1133240FC929D97FD01D301C201880F991FAA1F0B
S1133250BB1F8E7F9170AA27BB27E80FF91F46A5D5
S113326057A560E070E028C189859A85AB85BC8547
S113327082309105A105B10568F08C019D01F7012B
S113328082899389A489B589081719072A073B07F6
S113329008F4D9C231E020E080E090E0632F722F7F
S11332A066960FB6F894DEBF0FBECDBFDF91CF9107
S11332B01F910F91FF90EF90DF90CF90BF90AF9050
S11332C09F908F907F906F905F904F903F902F9042
S11332D00895FC0182899389A489B589081719077F
S11332E02A073B0708F427CF21E030E040E050E014
S11332F029833A834B835C831ECFC20196958795BD
S1133300FC01E40DF51DFE83ED835E964D915D9108
S11333106D917C919197CF01892F992786954A01C8
S11333205B01880E991EA11CB11C9A96CD90DD906C
S1133330ED90FC909D97C814D904EA04FB0411F1A4
S113334014968C91149781112DC101E010E0A50110
S11333509401B101AD89BE8911968C910E946530AA
S113336081110FC1AD89BE899A968D929D92AD92BD
S1133370BC929D975E964D915D916D917C919197D4
S1133380ED81FE810D811E810F5F1F4F1E870D870A
S1133390F1702D893E89E20FF31F96A59D83C80124
S11333A0892F992786956A017B01C80ED91EE11CD5
S11333B0F11C8C149D04AE04BF04D1F0D901149601
S11333C08C9114978111EDC101E010E0A7019601E1
S11333D0B101ED89FE8981810E9465308111D1C0DE
S11333E0AD89BE899A96CD92DD92ED92FC929D971D
S11333F0ED85FE85F1700D891E89E00FF11F86A50C
S11334009D81492F50E0582B40FE4CC25295429565
S11334104F7045275F70452760E070E04DC0AD896F
S1133420BE895E96CD90DD90ED90FC909197D3018E
S1133430C20137E0B695A795979587953A95D1F748
S1133440C80ED91EEA1EFB1EED89FE8982A493A430
S1133450A4A4B5A4C814D904EA04FB04C1F084816B
S11334608111F6C001E010E0A7019601B101ED89D8
S1133470FE8981810E946530811183C0AD89BE8936
S11334809A96CD92DD92ED92FC929D97FD01D30127
S1133490C201880F991FAA1FBB1F880F991FAA1F5B
S11334A0BB1F8C7F9170AA27BB27E80FF91F46A585
S11334B057A560A971A97F70411551056105710572
S11334C009F066CEED88FE88F70182899389A48984
S11334D0B589481659066A067B0608F0DBCE0FEF5D
S11334E01FEF2FEF3FE0B301A201C7010E94621159
S11334F08111D0C109851A852B853C8501151105DB
S113350021053105E1F0023011052105310508F4EA
S1133510C1CEF70182899389A489B589081719074F
S11335202A073B0708F0B6CE9301820149855A85E4
S11335306B857C85C7010E9462118111ABC1D701E3
S11335401A964D925D926D927C921D971E968D9166
S11335509D910D90BC91A02D8F3FEFEF9E07AE077C
S1133560BE0759F00197A109B109F701868797872A
S1133570A08BB18B858181608583342D252DC3017A
S11335808DCEED88FE888FEF9FEFDC01F70182A7D7
S113359093A7A4A7B5A74FEF5FEFBA01342F252F48
S11335A0CB017CCE01E010E0A7019601B101119698
S11335B08C910E94E0308111EECFAD89BE891496C2
S11335C01C921497FD0186899789A08DB18D468D33
S11335D0578D60A171A197018601041B150B260B61
S11335E0370B081719072A073B0708F0AECE2381CB
S11335F0022F10E00230110508F4A7CE4D865E8636
S11336006F86788A2601370178016F0105C0F601BB
S113361086899789A08DB18D480E591E6A1E7B1E1E
S113362001E010E0A3019201B101D60111968C9141
S11336300E94E030B1E0EB1AF108E1E0EE16F1048B
S113364031F74D845E846F847888DE8ACD8A7DCE9E
S113365001E010E0A5019401B10181810E94E030F4
S1133660811199CFAD89BE8914961C921497FD01DE
S113367086899789A08DB18D468D578D60A171A1E2
S113368095018401041B150B260B370B081719072A
S11336902A073B0708F0E6CE2381022F10E0023010
S11336A0110508F4DFCECD82DE82EF82F886780140
S11336B006C0ED89FE8986899789A08DB18D880E13
S11336C0991EAA1EBB1E01E010E0A5019401B101E0
S11336D0AD89BE8911968C910E94E030B1E0EB1A5D
S11336E0F108E1E0EE16F10421F7CD80DE80EF80F1
S11336F0F884B8CE01E010E0A5019401B101818104
S11337000E94E030811147CFAD89BE8914961C9286
S11337101497FD0186899789A08DB18D468D578DAB
S113372060A171A195018401041B150B260B370BB5
S1133730081719072A073B0708F06FCD2381022FCA
S113374010E00230110508F468CDCD82DE82EF82EC
S1133750F886780106C0ED89FE8986899789A08D4F
S1133760B18D880E991EAA1EBB1E01E010E0A501B2
S11337709401B101AD89BE8911968C910E94E0300B
S1133780B1E0EB1AF108E1E0EE16F10421F7CD8087
S1133790DE80EF80F88441CD30E020E080E090E0EE
S11337A07DCD01E010E0A5019401B10111968C9149
S11337B00E94E0308111EFCEED89FE8914824689A2
S11337C05789608D718D868D978DA0A1B1A19501CA
S11337D08401081B190B2A0B3B0B0417150726073A
S11337E0370708F0F1CD8381082F10E0023011056E
S11337F008F4EACDC98ADA8AEB8AFC8A7801AD89B1
S1133800BE8908C0AD89BE8956964D915D916D9172
S11338107C915997840E951EA61EB71E01E010E0F8
S1133820A5019401B10111968C910E94E030B1E0A0
S1133830EB1AF108E1E0EE16F10421F7C988DA8801
S1133840EB88FC88C1CDB901A801C7010E94C0144E
S1133850AB01BC01423051056105710508F41ACD74
S11338604F3F1FEF510761077107B9F0F7018289D4
S11338709389A489B589481759076A077B0708F40F
S11338808DCE09851A852B853C8509831A832B8364
S11338903C8351CC813009F0FDCC3FEF2FEF8FEF0B
S11338A09FEFFCCC5F7060E070E006CE2F923F92F9
S11338B04F925F926F927F928F929F92AF92BF923C
S11338C0CF92DF92EF92FF920F931F93CF93DF93E8
S11338D0CDB7DEB7A0970FB6F894DEBF0FBECDBF4D
S11338E06C01DC011D921C92DB01ED91FC9130977F
S11338F009F44AC08081813268F08A3309F444C0F3
S1133900DF011196FD0102C09A33D9F19F01919113
S11339109132D0F7E090A801F090A901E114F104EC
S1133920A9F1B42EF601F182E082F70180818823A7
S113393029F081810E94812F80FF2AC0D7011C9227
S113394011961C9280E00E94882F80FF29C083E09A
S1133950A0960FB6F894DEBF0FBECDBFDF91CF9116
S11339601F910F91FF90EF90DF90CF90BF90AF9099
S11339709F908F907F906F905F904F903F902F908B
S113398008952A173B0781F18BE0E2CF8CE0E0CF6A
S1133990BB2021F082FF02C08AE0DACF80E0D8CFDA
S11339A0BB2011F082FDF8CFF701148288248A9499
S11339B0982C540182A693A6A4A6B5A66701BEE2DC
S11339C0CB0ED11C01E010E020E030E0A901B601EB
S11339D081810E946530882379F0F70182A693A63D
S11339E0A4A6B5A681E0B4CF803371F6FD0131966B
S11339F0DB01ED93FC938ECFD7019A961D921D9215
S1133A001D921C929D971701B4ED2B1ABDEF3B0A32
S1133A10F1018081918185359A4A11F08DE098CF2A
S1133A2097012C593F4F3A8B298BF9018081918161
S1133A30A281B381BB2786349144A445B10509F41E
S1133A40C4C0245E3F4F3E8B2D8BF9018081918150
S1133A50A281B381BB2786349144A445B10509F4FE
S1133A60B4C0F701E051FE4F8081882309F42FC2CE
S1133A70349680819181A281B38189839A83AB83B7
S1133A80BC83F701FE5F8081882309F477C23496F2
S1133A9080819181A281B3818D839E83AF83B88716
S1133AA0F701E05FFD4F8081882309F463C23496F7
S1133AB080819181A281B38189879A87AB87BC87F2
S1133AC0F701E05EFD4F8081882309F4FCC1349640
S1133AD080819181A281B3818D879E87AF87B88BC6
S1133AE089809A80AB80BC8081149104A104B104C4
S1133AF009F043C08D809E80AF80B8848114910406
S1133B00A104B10409F0BCC189849A84AB84BC8447
S1133B1081149104A104B10409F08EC18D849E84A2
S1133B20AF84B88881149104A104B10409F476CF58
S1133B30F701148244244A94542C320142A653A619
S1133B4064A675A6BFEF8B169B06AB06BB0609F4ED
S1133B50C7C101E010E0A5019401B60181810E9472
S1133B606530882309F4B7C1D7019A964D925D92C6
S1133B706D927C929D9781E0EBCED70114961C92B6
S1133B8044244A94542C3201F70142A653A664A655
S1133B9075A6FFEF8F169F06AF06BF0609F4F7C19F
S1133BA001E010E0A5019401B601D70111968C91B2
S1133BB00E946530882309F4E5C1D7019A964D9295
S1133BC05D926D927C929D9795CF812C912C54019E
S1133BD0D701D9968D919C91DA978115924009F07D
S1133BE01DCFF701EC5BFF4F808191812C01612C8B
S1133BF0712C498A5A8A6B8A7C8A41145104610463
S1133C00710449F43E964080518062807380498AF1
S1133C105A8A6B8A7C8AD70156964D925D926D9230
S1133C207C925997DE96AC91F701A3838FEF8A0FAC
S1133C30823008F0F3CEB0E0A30192010E94BD38B7
S1133C40698F7A8F8B8F9C8F13AD1283112309F4A4
S1133C50E5CE812F90E0AC01415051098423952396
S1133C60892B09F0DBCEFF96C080D180D70119964D
S1133C70DC92CE921897C6018F709927892B09F090
S1133C80CDCE329660817181CB01A0E0B0E0009787
S1133C90A105B10529F43D9680819181A281B3816A
S1133CA0F70144AD55AD4115510509F4B7CE2A01CC
S1133CB0612C712C4D8E5E8E6F8E78A2960132959A
S1133CC022952F7023273F702327420E531E611C19
S1133CD0711C298D3A8D4B8D5C8D240D351D461D2F
S1133CE0571D2D8B3E8B4F8B588F82179307A4073C
S1133CF0B50708F493CEBC01CD01621B730B840B92
S1133D00950B212F30E040E050E00E948C382115C3
S1133D1031054105510509F481CE263F6FE0360790
S1133D204105510508F428C2263F7FEF37074105B6
S1133D30510508F4BAC1BA01A9014E5F5F4F6F4F34
S1133D407F4FD70152964D935D936D937C93559716
S1133D50F701828E938EA48EB58E4D8C5E8C6F8C03
S1133D6078A0480C591C6A1C7B1C5E964D925D928F
S1133D706D927C9291978D899E89AF89B88D880DBB
S1133D80991DAA1DBB1D86A397A3A0A7B1A7CD28E3
S1133D9009F044CEF701E65AFF4F80819181A28158
S1133DA0B381F70182A393A3A4A3B5A3DB01CA0142
S1133DB0880F991FAA1FBB1F880F991FAA1FBB1F1B
S1133DC081509E4FAF4FBF4F79E0B695A795979519
S1133DD087957A95D1F749885A886B887C884816E4
S1133DE059066A067B0608F419CE8FEF9FEFDC01B3
S1133DF0F70186879787A08BB18B82879387A487E7
S1133E00B58780E88583E25AFF4F808191810197CD
S1133E1009F406C183E0D7018C938091A6019091A7
S1133E20A70101969093A7018093A60117969C93EE
S1133E308E93169780E08CCDF701148244244A9423
S1133E40542C320142A653A664A675A6BFEF8B1666
S1133E509B06AB06BB0609F4C1C001E010E0A50156
S1133E609401B60181810E946530882309F4B1C0B0
S1133E70D7019A964D925D926D927C929D974ECE0B
S1133E80F701148244244A94542C320142A653A6C6
S1133E9064A675A6BFEF8B169B06AB06BB0609F49A
S1133EA047C001E010E0A5019401B60181810E94A0
S1133EB065308823C1F1D7019A964D925D926D9237
S1133EC07C929D9721CE80E090E0DC0105CE80E0DD
S1133ED090E0DC01D2CDF70182A693A6A4A6B5A6F4
S1133EE0D1018D919C9185359A4A09F097CDE98944
S1133EF0FA8980819181A281B381BB278634914460
S1133F00A445B10509F464CEED89FE8980819181CF
S1133F10A281B381BB2786349144A445B10509F439
S1133F2057CE8DE015CDF70182A693A6A4A6B5A61B
S1133F30F1018081918185359A4A09F0E5CDE989BD
S1133F40FA8980819181A281B381BB27863491440F
S1133F50A445B10509F43CCEED89FE8980819181A7
S1133F60A281B381BB2786349144A445B10509F0ED
S1133F70CBCD2ECE80E090E0DC019ECD80E090E0C1
S1133F80DC018ACDF70182A693A6A4A6B5A6D10129
S1133F908D919C9185359A4A09F0ACCDE989FA89CD
S1133FA080819181A281B381BB2786349144A44549
S1133FB0B10509F40DCEED89FE8980819181A2813C
S1133FC0B381BB2786349144A445B10509F092CD51
S1133FD0FFCDF70182A693A6A4A6B5A6F101808120
S1133FE0918185359A4A09F099CDE989FA898081C8
S1133FF09181A281B381BB2786349144A445B10544
S113400009F4E6CDED89FE8980819181A281B38195
S1134010BB2786349144A445B10509F07FCDD8CDA2
S1134020B501A4014F5F5F4F6F4F7F4FC7010E94DF
S1134030D4108111EFCED70115961C921597F1017A
S11340408081918185359A4A09F0E4CE9E968D91BE
S11340509D910D90BC91A02D82359245A146B1440D
S113406009F0D8CEF701EE5EFD4F80819181A281E7
S1134070B38182379247A144B14609F0CBCE34963E
S113408080819181A281B381F70186879787A08B74
S1134090B18BE65EFD4F80819181A281B381F701EE
S11340A082879387A487B587B5CEBA01A9014E5FED
S11340B05F4F6F4F7F4FD70152964D935D936D9332
S11340C07C935597F701828E938EA48EB58E8D8D39
S11340D09E8DAF8DB8A1880D991DAA1DBB1D868F1D
S11340E0978FA0A3B1A30D891E892F89388D080D40
S11340F0191D2A1D3B1D06A317A320A731A7CD28F0
S113410009F48CCC498C5A8C6B8C7C8C480E591ECF
S11341106A1E7B1ED70192964D925D926D927C929F
S11341209597DB01CA01880F991FAA1FBB1F8150F5
S11341309E4FAF4FBF4F59E0B695A795979587957A
S11341405A95D1F749885A886B887C88481659064D
S11341506A067B0608F462CC8FEF9FEFDC01F7015F
S113416086879787A08BB18B82879387A487B5872F
S113417080E8858382E04FCE2E5F3F4F4F4F5F4FE5
S1134180D70152962D933D934D935C935597F70128
S1134190828E938EA48EB58E8D8D9E8DAF8DB8A19B
S11341A0880D991DAA1DBB1D868F978FA0A3B1A34F
S11341B04D885E886F88788C840C951CA61CB71C6F
S11341C086A297A2A0A6B1A6CD2809F427CC498C33
S11341D05A8C6B8C7C8C480E591E6A1E7B1ED70130
S11341E092964D925D926D927C929597DA01C901F7
S11341F081709927AA27BB272C013D01EFEF4E0EB2
S1134200E1E05E1E611C711CA3E0B0E00E94BD38B9
S1134210DC01CB01B695A79597958795840D951DDF
S1134220A61DB71D39E0B695A795979587953A953C
S1134230D1F749885A886B887C88481659066A06DB
S11342407B0608F4EBCB8FEF9FEFDC01F701868749
S11342509787A08BB18B82879387A487B58780E8E3
S1134260858381E0D8CDCF93DF9300D000D0CDB744
S1134270DEB79A8389837C836B83E62FF72F30978D
S113428069F19081913268F09A3341F1BF016F5F17
S11342907F4FFB0102C08A33F1F09F01819181328B
S11342A0D0F7E091A801F091A901309709F01082AC
S11342B0E981FA81309749F11082F093A901E093E2
S11342C0A801413099F080E00F900F900F900F906B
S11342D0DF91CF91089526173707E1F08BE00F9017
S11342E00F900F900F90DF91CF91089540E0BE01A1
S11342F06D5F7F4FCE0101960E94561C0F900F9068
S11343000F900F90DF91CF9108951092A901109210
S1134310A801D9CF903329F2E1CF2F923F924F9247
S11343205F926F927F928F929F92AF92BF92CF9241
S1134330DF92EF92FF920F931F93CF93DF93CDB74A
S1134340DEB7EF970FB6F894DEBF0FBECDBF7CA3E8
S11343506BA3009749F14DA39EA78DA7DC011D9285
S11343601C924E71BE016D5D7F4FCE0101960E947D
S1134370561C8823D9F0EF960FB6F894DEBF0FBE13
S1134380CDBFDF91CF911F910F91FF90EF90DF9000
S1134390CF90BF90AF909F908F907F906F905F90E1
S11343A04F903F902F90089589E0E5CFFE017796D6
S11343B0FE8BED8B0BA11CA11AA709A7D8018C9128
S11343C08F3209F47DC18C3509F47AC11DA11F71A6
S11343D01FA71F82188619861A86A9A5BAA58C91CB
S11343E0803208F4E4C289A49AA4D4018C910FEF1A
S11343F0801A900A8F32C9F38C35B9F310E2108316
S113440011831283138314831583168317831087F0
S1134410118712877D0160E070E0812C912C98E077
S1134420A92EB12CC12C0C2DAF012FEF821A920AA8
S1134430F70111917F01113208F449C11F3209F4C7
S1134440CEC01C3509F4CBC01E3209F4B3C06A15C2
S11344507B05E8F417FD1BC0212F30E01232B9F0C0
S1134460EFE6F1E004C090E02817390781F081916C
S11344708111F9CF8FEB810F8A3108F0A8C0026057
S1134480FA01E60FF71F10836F5F7F4FCECF2B88A3
S11344903C8886E09DA19C7109F401C10FA50860C8
S11344A00FA7811168CFA980BA802FA523FF42C02E
S11344B080E090E0A1E2B6E4F10186879787A08BC3
S11344C0B18B868B978BA08FB18F1386148E158E2C
S11344D0168E178E828D938D8C0120E030E00DA313
S11344E01EA32FA338A7D5018C91833079F4848936
S11344F09589A0E0B0E0DC0199278827082B192BC7
S11345002A2B3B2B0DA31EA32FA338A7D1015B9607
S11345101C921E925A9755961C921E92549781E0B3
S1134520F5018483012B022B032B09F0B5C2EFA5FF
S1134530E062EFA7F50182A593A5A4A5B5A5EDA515
S1134540FEA5828F938FA48FB58F378E268E0FA5ED
S113455004831582D1015A968D919C915B97A0E0BA
S1134560B0E0F5012081233009F47AC2EDA5FEA55F
S113457086879787A08BB18BF101848D958DA68D4D
S1134580B78DEDA5FEA582879387A487B58716828C
S1134590178210861186168A178A108E118EB182A0
S11345A0A082D50116968D919C911797938382834F
S11345B080E0E1CEF8E0AF16B10409F068CF000F57
S11345C0000F68E070E08BE0A82EB12C2ECF8FE9AD
S11345D0810F8A3108F054CF0160105251CFC02EA0
S11345E0FA019D01280D391D3AA729A780E0672B00
S11345F009F44DCF9081953E09F487C018E0A116C7
S1134600B10409F47FC09C2D9370913009F478C0F3
S11346109C2D9C70943009F471C08387CE0101965F
S11346200E94AB1781115CC0E980FA808F8498885E
S1134630A988BA8824013501D7019A968D909D9056
S1134640AD90BC909D9784149504A604B70409F416
S113465077C014968C91170181110BC13EE2230E91
S1134660311C01E010E0A3019201B101D7011196C0
S11346708C910E946530882309F45BC08FEF9FEF13
S1134680DC01F70182A793A7A4A7B5A72B899C896E
S113469081E0222E392E9DA19C7109F0FFCE81115B
S11346A06ACED1011B964C9144FDD8C1BDA1B1FD88
S11346B0ECC14B2F4870A980BA80411138CF3ACF52
S11346C009A51AA50F5F1F4F1AA709A77FCEC02EF1
S11346D0FA018D01080D191D1AA709A784E087CFD7
S11346E02B899C89ED89FE893385222E392E8430CD
S11346F009F0D0CE32FD0CC085E0CCCE88608DCFE1
S1134700806186CFCC0CCC0C7ECF05E0008376CFC5
S113471084E09DA19C7109F42ECECE0101960E94E5
S1134720AB17882309F4D5C1843009F024CE87E07F
S113473022CED7019A964D925D926D927C929D976E
S1134740AB89BC898C91882309F42CC11B964C91AC
S11347501B9743FD5EC0ED89FE89208130E090E027
S11347602817390709F055C0918111968C9111973A
S113477098134FC012969C9112978281981349C046
S113478013969C9113978381981343C014969C911C
S11347901497848198133DC015969C911597858133
S11347A0981337C016969C9116978681981331C03A
S11347B017969C911797878198132BC018969C91F4
S11347C018978085981325C019969C91199781850F
S11347D098131FC01A969C911A978285981319C032
S11347E09F01838582FD71C244FF35C15A964D9164
S11347F05C915B9760E070E089819A81FC01808123
S1134800833009F49DC04F83588769877A87F901FB
S1134810EACD0D811E810F5F1F4F29F41D012A2F40
S1134820932D84E05FCF4F84588869887A88411437
S113483051046104710491F36801FFE0CF22DD2487
S1134840C114D10409F460C0E980FA801E830D8389
S1134850CC0CDD1CC294D29400EFD022DC24C02204
S1134860DC24FEE2CF0ED11CCE0CDF1CDC8ACB8A0A
S1134870E3CEBEE22B0E311C01E010E0A501940151
S1134880B101F70181810E94E0308111FFCED7018F
S113489014961C92149756968D919D910D90BC91EF
S11348A0A02DF701468D578D60A171A1950184015A
S11348B0041B150B260B370B081719072A073B0790
S11348C008F0CFCEC380D12C12E0C116D10430F44D
S11348D0C8CEF70186899789A08DB18D880E991E5F
S11348E0AA1EBB1E01E010E0A5019401B101D7018D
S11348F011968C910E94E030B1E0CB1AD108E1E02E
S1134900CE16D10431F7ADCE2FEF421A520A620A05
S1134910720A4F86588A698A7A8A4B855C856D85C6
S11349207E85E980FA80F70141155105610571051D
S1134930A9F4808591850817190708F06FCF86CFF1
S113494054968D919C915597A0E0B0E0DC01992795
S11349508827482B592B6A2B7B2B55CF828190E0DB
S11349609C0121503109C801929582958F70892745
S11349709F70892782239323892B09F067CF4230C4
S113498051056105710548F082889388A488B5882B
S1134990481559056A057B05A0F01D012A2F932DA2
S11349A082E077CE1D01ED89FE893385A3CECE0149
S11349B001960E94AB171C8A1B8A81118CC286E067
S11349C0DACCC7010E94C0146230710581059105DB
S11349D008F489C26F3FFFEF7F078F079F0709F431
S11349E04CC0E980FA80D70152968D909D90AD908D
S11349F0BC905597681579058A059B0540F56B872A
S1134A007C878D879E879B01AC0122503109410927
S1134A105109B2E08B1A9108A108B108281539058B
S1134A204A055B0570F5F701A281B0E00E94BD382C
S1134A3086A097A0A0A4B1A42B013C01480C591C4A
S1134A406A1C7B1C4F86588A698A7A8AFFCE2B8916
S1134A509C8984E047CE1D0185E01CCD84E08BCC8D
S1134A60F1014489558960E070E0BA015527442773
S1134A70842B952BA62BB72B79CD2B899C8981E090
S1134A8031CE412C512C3201DDCF40FD50CE4DA111
S1134A904870A980BA8011CE22A533A544A555A596
S1134AA02CAF3DAF4EAF5FAF0DA11EA12FA138A516
S1134AB0023011052105310550F082899389A489BA
S1134AC0B589081719072A073B0708F410C282E0C2
S1134AD052CC89809A804F84588869887A88D40116
S1134AE09A96AD90BD90CD90DC909D97A414B5049A
S1134AF0C604D70411F114968C911401BEE22B0E56
S1134B00311C81119AC001E010E0A3019201B101AE
S1134B10F40181810E946530882351F08FEF9FEF6B
S1134B20DC01F40182A793A7A4A7B5A781E023CC55
S1134B30F40142A653A664A675A6EB89FC8980817C
S1134B40853E11F0811132C08F849888A988BA8873
S1134B50E980FA80D7019A964D905D906D907C9093
S1134B609D9784149504A604B70409F4CAC0149646
S1134B708C9117018111FAC0FEE22F0E311C01E065
S1134B8010E0A5019401B101D70111968C910E9406
S1134B906530882309F4ACC08FEF9FEFDC01F70187
S1134BA082A793A7A4A7B5A781E0E5CB0D811E81B9
S1134BB00F5F1F4F09F4BBCD4F84588869887A88EA
S1134BC0411451046104710409F4B1CD5801FFE0AA
S1134BD0AF22BB24A114B10409F087C02FEF421AFD
S1134BE0520A620A720A4F86588A698A7A8A4B85FF
S1134BF05C856D857E8589809A80411551056105A6
S1134C00710509F0FFC0D40118968D919C911997F4
S1134C100817190708F08BCD1E830D83C501880F73
S1134C20991F82959295907F9827807F98278E96DA
S1134C30880D991D9C8B8B8B52CF01E010E0A6014F
S1134C409501B101F40181810E94E030811143C4D6
S1134C50D40114961C92149756968D919D910D90A3
S1134C60BC91A02DF401468D578D60A171A19601D0
S1134C708501041B150B260B370B081719072A0788
S1134C803B0708F040CFE380F12C12E0E116F10479
S1134C9030F439CFF40186899789A08DB18DA80E9F
S1134CA0B91ECA1EDB1E01E010E0A6019501B10188
S1134CB0D40111968C910E94E030B1E0EB1AF10816
S1134CC0E1E0EE16F10431F71ECF1D01AB2B09F420
S1134CD076CE8DA18C7109F4E7CC417109F027CD12
S1134CE01DA112FFE0CB88E046CB89809A8094CF47
S1134CF0D7019A968D929D92AD92BC929D97EB8925
S1134D00FC8980E2DF011D928A95E9F7AD89BE89AD
S1134D10EB89FC898D919C911197918380831296E4
S1134D208D919C9113979383828314968D919C917A
S1134D3015979583848316968D919C9117979783E5
S1134D40868318968D919C911997918780871A96DE
S1134D508C918287A980BA8081E0F5018483FFA5C4
S1134D60F860FFA72B883C882F2FA0CBBEE22B0E28
S1134D70311C01E010E0A3019201B101F70181812E
S1134D800E94E0308111A7C3D70114961C92149796
S1134D9056968D919D910D90BC91A02DF701468D55
S1134DA0578D60A171A193018201041B150B260B81
S1134DB0370B081719072A073B0708F0E0CEC38012
S1134DC0D12C12E0C116D10408F4D9CE480E591ED4
S1134DD06A1E7B1E01E010E0A3019201B101D7011C
S1134DE011968C910E94E030B1E0CB1AD108E1E039
S1134DF0CE16D10409F4C3CEF70186899789A08D14
S1134E00B18DE4CFF401828190E00197980132954D
S1134E1022952F7023273F70232782239323892BE6
S1134E2009F0FACE423051056105710508F44FCE00
S1134E3082899389A489B589481759076A077B072A
S1134E4008F045CEC4010E94C0146B017C0162309D
S1134E5071058105910508F43ACE6F3F7F4F8F4F5E
S1134E609F4F09F438C389809A80F4018289938919
S1134E70A489B589C816D906EA06FB0608F09BC2C0
S1134E80A701960122503109410951092C013D0124
S1134E90F2E04F1A510861087108CB86DC86ED8672
S1134EA0FE86241535054605570508F080C2F40131
S1134EB0A281B0E00E94BD38C6A0D7A0E0A4F1A4AE
S1134EC02B013C014C0C5D1C6E1C7F1C4F86588AC8
S1134ED0698A7A8AA1CE9DA19C7109F44CCA843056
S1134EE009F049CA1ACC2B899C8982E0FBCB09A71B
S1134EF01AA72BA73CA745011EE2810E911C3BAECD
S1134F002AAEC9A4DAA4EBA4FCA4340157C08330AC
S1134F1009F4EFC1813009F493C0212C312C210113
S1134F202394B1E02B1631044104510409F4CFCD8C
S1134F300FEF201630064006500609F4CCC212E0EA
S1134F40C116D104E104F10408F4C1CDF50182894C
S1134F509389A489B589C816D906EA06FB0608F020
S1134F60B6CD00E010E09801B701A601C5010E948A
S1134F706211811100CAF50186859785A089B189DE
S1134F808F3FFFEF9F07AF07BF0759F00196A11DA1
S1134F90B11DF50186879787A08BB18B85818160D0
S1134FA08583F50182899389A489B58928163906F0
S1134FB04A065B0608F092C272016101D5018C9128
S1134FC0823009F0A4CFBB27AF2D9E2D8D2DF50186
S1134FD0468D578D60A171A18C019D01040F151F91
S1134FE0261F371F09A71AA72BA73CA722A433A45F
S1134FF044A455A4021513052405350509F4FDC27E
S113500084818111A7C201E010E029A53AA54BA52E
S11350105CA5B301F50181810E946530882309F400
S1135020E1C20FEF1FEF9801D5019A960D931D93DE
S11350302D933C939D9722242A94322C210171CFE5
S1135040C60196958795FC01EC0DFD1DF9ABE8AB07
S11350505E968D919D910D90BC91A02D9F01232F63
S1135060332726951C012D01220E331E411C511C91
S1135070F50102A513A524A535A509A71AA72BA7F1
S11350803CA7201631064206530609F4E5C0848184
S1135090811181C001E010E0A2019101B301F50189
S11350A081810E9465308111BCCFD5019A962D92E1
S11350B03D924D925C929D975E968D919D910D903F
S11350C0BC91A02D2EAA3FAA48AE59AE08A919A991
S11350D00F5F1F4F1BAB0AABE8A9F9A9F170EA0DEA
S11350E0FB1D26A5422F50E059AB48AB9801232F56
S11350F033272695AC01BD01420F531F611D711D5D
S113510049A75AA76BA77CA7241635064606570657
S1135110F9F0D50114968C9114978111A2C001E085
S113512010E029A53AA54BA55CA5B301D5011196BC
S11351308C910E946530811174CF09A51AA52BA505
S11351403CA5D5019A960D931D932D933C939D9761
S1135150EAA9FBA9F170EA0DFB1D86A528A839A8C8
S1135160382AC0FE6EC032942294BFE02B2223243E
S11351703B222324412C512C211431044104510499
S113518009F4ACC1B1E02B1631044104510409F017
S1135190D6CE82E0F0C801E010E029A53AA54BA5DF
S11351A05CA5B30181810E94E030811194C1D501D5
S11351B014961C92149756968D919D910D90BC91C6
S11351C0A02DF501468D578D60A171A109A51AA5E1
S11351D02BA53CA5041B150B260B370B0817190729
S11351E02A073B0708F056CF8380912C12E08116E2
S11351F0910408F44FCF2AAA3BAA4CAA5DAA130132
S113520029A53AA54BA55CA5280F391F4A1F5B1F8A
S113521029A73AA74BA75CA701E010E0B101D5018B
S113522011968C910E94E030B1E08B1A9108E1E074
S11352308E16910459F0F50186899789A08DB18D58
S1135240DFCFFFE03F22412C512C96CF31012AA819
S11352503BA84CA85DA81ECF2EAA3FAA48AE59AEC3
S113526035CF01E010E0A2019101B30111968C91B8
S11352700E94E03081112FC1F5011482868997893B
S1135280A08DB18D468D578D60A171A192018101D0
S1135290041B150B260B370B081719072A073B07A6
S11352A008F03DCF8380912C12E08116910408F41C
S11352B036CF2EA83FA848AC59AC280E391E4A1E3A
S11352C05B1E01E010E0A2019101B301D50111962A
S11352D08C910E94E030B1E08B1A9108E1E08E16C7
S11352E0910409F41CCFF50186899789A08DB18DAD
S11352F0E4CFD5015E964D915D916D917C9191972E
S1135300D701C601E7E0B695A79597958795EA95E5
S1135310D1F78C019D01040F151F261F371F09A704
S11353201AA72BA73CA7D5019A962D903D904D9096
S11353305C909D970215130524053505F1F014962C
S11353408C91149781116BC101E010E029A53AA555
S11353504BA55CA5B301D50111968C910E946530D3
S113536081115FCE09A51AA52BA53CA5D5019A9656
S11353700D931D932D933C939D97D701C601880FE0
S1135380991FAA1FBB1F880F991FAA1FBB1F8C7FC1
S11353909170AA27BB27F501E80FF91F86A597A5E9
S11353A0A0A9B1A91C012D01FFE05F22E5CE412C8B
S11353B0512C32018BCD4B855C856D857E85C40176
S11353C00E9458186B017C016115710581059105D6
S11353D009F4ADC9613071058105910509F477CBF4
S11353E06F3F7F4F8F4F9F4F09F475C089819A811A
S11353F0DC0114962C912111A6C0FC01BE96DF019C
S113540020E032E01D9221503040E1F789809A80FB
S1135410B701A60142505109610971094DA35EA368
S11354206FA378A7F40182899389A489B5892C0193
S11354303D01F2E04F1A5108610871084415550501
S11354406605770508F46CC0D40112963C9080E0A0
S113545090E0DC01F40182A793A7A4A7B5A73320A9
S113546009F45AC0212C312C21E02483CF010E945D
S11354707710811130C0E981FA81228182A593A538
S1135480A4A5B5A50196A11DB11D82A793A7A4A7A4
S1135490B5A73FEF231A330A30E02216330620F370
S11354A04F01910140E050E0428853886488758838
S11354B062E0461A510861087108821B930BA40B21
S11354C0B50BF40182A793A7A4A7B5A72DA13EA16C
S11354D04FA158A5E2CC81E00C94BB212AAC3BAC93
S11354E089819A814DA15EA16FA178A5415051098E
S11354F061097109FC0142875387648775874CAD44
S11355005DAD6EAD7FAD0E94D41081110C94BB21B2
S1135510A980BA800C94972220E030E0A901CDCF75
S11355209A01AB01F4013280A32DB0E00E94BD3892
S113553026A137A140A551A5DC01CB01820F931F01
S1135540A41FB51F87CF0E9477108111C4CF898112
S11355509A8153CF01E010E0A2019101B30181814E
S11355600E94E0308111B7CFD50114961C92149794
S113557056968D919D910D90BC91A02DF501468D6F
S1135580578D60A171A192018101041B150B260B9B
S1135590370B081719072A073B0708F034CD838017
S11355A0912C12E08116910408F42DCD280E391E99
S11355B04A1E5B1E01E010E0A2019101B301D50176
S11355C011968C910E94E030B1E08B1A9108E1E0D1
S11355D08E16910409F417CDF50186899789A08D5B
S11355E0B18DE4CF09A51AA52BA53CA5D5019A96A2
S11355F00D931D932D933C939D97D701C601880F5E
S1135600991FAA1FBB1F8E7F9170AA27BB27F50184
S1135610E80FF91F26A437A4412C512CADCD01E08D
S113562010E0A2019101B30111968C910E94E03027
S1135630811151CFF501148286899789A08DB18D8E
S1135640468D578D60A171A192018101041B150B38
S1135650260B370B081719072A073B0708F074CEE7
S11356608380912C12E08116910408F46DCE280EEB
S1135670391E4A1E5B1E01E010E0A2019101B30134
S1135680D50111968C910E94E030B1E08B1A9108FB
S1135690E1E08E16910409F457CEF50186899789C5
S11356A0A08DB18DE4CF2F923F924F925F926F9273
S11356B07F928F929F92AF92BF92CF92DF92EF929E
S11356C0FF920F931F93CF93DF9300D000D0CDB7F9
S11356D0DEB79C838B836B017A013901D9011D925A
S11356E01C92009749F0DC01ED91FC9111973097E1
S11356F019F08081811118C089E00F900F900F90EC
S11357000F90DF91CF911F910F91FF90EF90DF9059
S1135710CF90BF90AF909F908F907F906F905F904D
S11357204F903F902F9008952681378112968D9146
S11357309C91139728173907F9F681810E94812FCC
S113574080FDDACFAB81BC8115968C9115978111C0
S1135750D4CFFD01848180FD02C087E0CECF868056
S11357609780A084B18482859385A485B5858819A2
S11357709909AA09BB09A70160E070E0841795079D
S1135780A607B70708F47C01E114F10409F453C136
S11357908B819C8180969A838983412C32E0532E9D
S11357A082C0AB81BC81ED91FC9112811150D50175
S11357B0C40129E0B695A795979587952A95D1F7C1
S11357C0182309F4B0C0AB81BC8152962D913D9150
S11357D04D915C91559722503109410951098289B3
S11357E09389A489B5890297A109B10928173907B2
S11357F04A075B0708F0F8C00281A02FB0E00E94BE
S1135800BD3886A097A0A0A4B1A4860E971EA81E9A
S1135810B91E81149104A104B10409F4E5C0810EF8
S1135820911CA11CB11C1701232C33242694211490
S1135830310409F49CC0212F30E0A901420D531D0D
S1135840CD018417950718F41C01221A330A81012B
S1135850A5019401B60181810E9465308111E3C0E4
S1135860B101762F6627770FEB81FC8186809780C4
S1135870A084B184C60ED71E860E971EA11CB11C2F
S1135880AB81BC8116968D929D92AD92BC92199774
S1135890F30180819181860F971F91838083E61A9B
S11358A0F70A09F4C8C0950184011170222733272F
S11358B0011511052105310509F473CFC401917057
S11358C0B201681B790BE616F70608F4B701A801C4
S11358D0405E5F4F8B819C81480F591F6130710579
S11358E009F4A7C0DA019B01F6018D919D91819382
S11358F091932250310922303105B8F7CB01029738
S11359008E7F0296F601E80FF91F480F591F60FFBA
S1135910B1CFDA018C918083EB81FC818680978002
S1135920A084B184A7CF89288A288B2809F061C074
S1135930EB81FC8166857785808991896230710568
S11359408105910508F450C06F3FFFEF7F078F0773
S11359509F0709F468C0EB81FC81628B738B848B95
S1135960958B0190F081E02D9B01AC0134CFAB818C
S1135970BC8156962D913D914D915C915997281576
S113598039054A055B0501F114968C9186FF11C017
S113599001E010E069817A8181810E94E030811107
S11359A042C0EB81FC8184818F7B84830190F081F0
S11359B0E02D01E010E0A501940169817A818181E3
S11359C00E94653081112FC0EB81FC81868A978A01
S11359D0A08EB18E86809780A084B18495018401C5
S11359E01170222733276ACF82E0EB81FC81858303
S11359F084CEAB81BC8152964D915D916D917C9129
S1135A005597423051056105710570F38289938978
S1135A10A489B589481759076A077B0728F7CF0176
S1135A200E94C0148BCF81E0AB81BC8115968C930E
S1135A3064CEF6016ECF80E060CE2F923F924F92FB
S1135A405F926F927F928F929F92AF92BF92CF920A
S1135A50DF92EF92FF920F931F93CF93DF93009700
S1135A6049F0DC01ED91FC911197309719F02081F8
S1135A70211114C089E0DF91CF911F910F91FF9004
S1135A80EF90DF90CF90BF90AF909F908F907F90DA
S1135A906F905F904F903F902F900895468157816B
S1135AA012962D913C9113974217530719F7EC0165
S1135AB081810E94812F80FDDDCF8C8185FD17C0FF
S1135AC0E881F9813097B1F28081882399F22681A7
S1135AD037818A819B812817390761F681810E9469
S1135AE0812F80FDC7CF1982188280E0C4CF86FF42
S1135AF013C02E893F89488D598DE881F98101E0D1
S1135B0010E0BE01605E7F4F81810E94E030811110
S1135B102DC08C818F7B8C834A8C5B8C6C8C7D8CB0
S1135B20E880F980F70182A493A4A4A4B5A448143E
S1135B3059046A047B0419F18481170181115FC03F
S1135B40BEE22B0E311C01E010E0A3019201B10171
S1135B50F70181810E946530882351F08FEF9FEF18
S1135B60DC01F70182A793A7A4A7B5A781E083CF9F
S1135B70D7019A964D925D926D927C929D97EE8D8F
S1135B80FF8D8385806283878A859B85AC85BD85EF
S1135B90848F958FA68FB78F8E859F85A889B989A5
S1135BA0938F828FB58BA48B80E090E0A1E2B6E462
S1135BB0868B978BA08FB18F138A128A8C818F7DED
S1135BC08C83E881F98181E08483E880F980D701BE
S1135BD014968C911497811159C0D7018C918330FC
S1135BE009F4A6C040E050E060E0D70111968C9122
S1135BF00E94B131882309F463CF81E03CCFFEE2F7
S1135C002F0E311C01E010E0A5019401B101D70170
S1135C1011968C910E94E0308111A8CFF701148273
S1135C2086899789A08DB18D468D578D60A171A10C
S1135C3095018401041B150B260B370B0817190754
S1135C402A073B0708F07FCFC380D12C12E0C1168E
S1135C50D10430F478CFF70186899789A08DB18D6E
S1135C60880E991EAA1EBB1E01E010E0A501940136
S1135C70B101D70111968C910E94E030B1E0CB1AAA
S1135C80D108E1E0CE16D10431F75DCF9A964D905C
S1135C905D906D907C909D975701BEE2AB0EB11C58
S1135CA001E010E0A3019201B501F70181810E9496
S1135CB0E03081115BCFD70114961C92149756964D
S1135CC08D919D910D90BC91A02DF701468D578D1E
S1135CD060A171A193018201041B150B260B370BE4
S1135CE0081719072A073B0708F077CFC380D12C80
